{
  "contractName": "LotteryPlace",
  "abi": [
    {
      "anonymous": false,
      "inputs": [
        {
          "indexed": true,
          "internalType": "address",
          "name": "previousOwner",
          "type": "address"
        },
        {
          "indexed": true,
          "internalType": "address",
          "name": "newOwner",
          "type": "address"
        }
      ],
      "name": "OwnershipTransferred",
      "type": "event"
    },
    {
      "anonymous": false,
      "inputs": [],
      "name": "startedLottery",
      "type": "event"
    },
    {
      "constant": true,
      "inputs": [],
      "name": "isOwner",
      "outputs": [
        {
          "internalType": "bool",
          "name": "",
          "type": "bool"
        }
      ],
      "payable": false,
      "stateMutability": "view",
      "type": "function"
    },
    {
      "constant": true,
      "inputs": [],
      "name": "owner",
      "outputs": [
        {
          "internalType": "address",
          "name": "",
          "type": "address"
        }
      ],
      "payable": false,
      "stateMutability": "view",
      "type": "function"
    },
    {
      "constant": false,
      "inputs": [],
      "name": "renounceOwnership",
      "outputs": [],
      "payable": false,
      "stateMutability": "nonpayable",
      "type": "function"
    },
    {
      "constant": false,
      "inputs": [
        {
          "internalType": "address",
          "name": "newOwner",
          "type": "address"
        }
      ],
      "name": "transferOwnership",
      "outputs": [],
      "payable": false,
      "stateMutability": "nonpayable",
      "type": "function"
    },
    {
      "constant": true,
      "inputs": [
        {
          "internalType": "uint256",
          "name": "",
          "type": "uint256"
        }
      ],
      "name": "users",
      "outputs": [
        {
          "internalType": "address",
          "name": "",
          "type": "address"
        }
      ],
      "payable": false,
      "stateMutability": "view",
      "type": "function"
    },
    {
      "constant": true,
      "inputs": [],
      "name": "usersAmount",
      "outputs": [
        {
          "internalType": "uint256",
          "name": "",
          "type": "uint256"
        }
      ],
      "payable": false,
      "stateMutability": "view",
      "type": "function"
    },
    {
      "constant": true,
      "inputs": [],
      "name": "getUsers",
      "outputs": [
        {
          "internalType": "address[]",
          "name": "",
          "type": "address[]"
        }
      ],
      "payable": false,
      "stateMutability": "view",
      "type": "function"
    },
    {
      "constant": true,
      "inputs": [],
      "name": "getUsersAmount",
      "outputs": [
        {
          "internalType": "uint256",
          "name": "",
          "type": "uint256"
        }
      ],
      "payable": false,
      "stateMutability": "view",
      "type": "function"
    },
    {
      "constant": false,
      "inputs": [],
      "name": "withdraw",
      "outputs": [],
      "payable": false,
      "stateMutability": "nonpayable",
      "type": "function"
    },
    {
      "constant": false,
      "inputs": [],
      "name": "buyTicket",
      "outputs": [],
      "payable": true,
      "stateMutability": "payable",
      "type": "function"
    }
  ],
  "bytecode": "0x608060405266038d7ea4c68000600355336000806101000a81548173ffffffffffffffffffffffffffffffffffffffff021916908373ffffffffffffffffffffffffffffffffffffffff1602179055506000809054906101000a900473ffffffffffffffffffffffffffffffffffffffff1673ffffffffffffffffffffffffffffffffffffffff16600073ffffffffffffffffffffffffffffffffffffffff167f8be0079c531659141344cd1fd0a4f28419497f9722a3daafe3b4186f6b6457e060405160405180910390a36109ae806100da6000396000f3fe6080604052600436106100905760003560e01c80638da5cb5b116100595780638da5cb5b146101d55780638f32d59b1461022c578063edca914c1461025b578063f2fde38b14610265578063f794077e146102b657610090565b8062ce8e3e146100955780630ffa7af714610101578063365b98b21461012c5780633ccfd60b146101a7578063715018a6146101be575b600080fd5b3480156100a157600080fd5b506100aa6102e1565b6040518080602001828103825283818151815260200191508051906020019060200280838360005b838110156100ed5780820151818401526020810190506100d2565b505050509050019250505060405180910390f35b34801561010d57600080fd5b5061011661036f565b6040518082815260200191505060405180910390f35b34801561013857600080fd5b506101656004803603602081101561014f57600080fd5b8101908080359060200190929190505050610379565b604051808273ffffffffffffffffffffffffffffffffffffffff1673ffffffffffffffffffffffffffffffffffffffff16815260200191505060405180910390f35b3480156101b357600080fd5b506101bc6103b5565b005b3480156101ca57600080fd5b506101d361041c565b005b3480156101e157600080fd5b506101ea6104ec565b604051808273ffffffffffffffffffffffffffffffffffffffff1673ffffffffffffffffffffffffffffffffffffffff16815260200191505060405180910390f35b34801561023857600080fd5b50610241610515565b604051808215151515815260200191505060405180910390f35b61026361056c565b005b34801561027157600080fd5b506102b46004803603602081101561028857600080fd5b81019080803573ffffffffffffffffffffffffffffffffffffffff169060200190929190505050610627565b005b3480156102c257600080fd5b506102cb610644565b6040518082815260200191505060405180910390f35b6060600180548060200260200160405190810160405280929190818152602001828054801561036557602002820191906000526020600020905b8160009054906101000a900473ffffffffffffffffffffffffffffffffffffffff1673ffffffffffffffffffffffffffffffffffffffff168152602001906001019080831161031b575b5050505050905090565b6000600254905090565b6001818154811061038657fe5b906000526020600020016000915054906101000a900473ffffffffffffffffffffffffffffffffffffffff1681565b6103bd610515565b6103c657600080fd5b60006103d06104ec565b90508073ffffffffffffffffffffffffffffffffffffffff166108fc479081150290604051600060405180830381858888f19350505050158015610418573d6000803e3d6000fd5b5050565b610424610515565b61042d57600080fd5b600073ffffffffffffffffffffffffffffffffffffffff166000809054906101000a900473ffffffffffffffffffffffffffffffffffffffff1673ffffffffffffffffffffffffffffffffffffffff167f8be0079c531659141344cd1fd0a4f28419497f9722a3daafe3b4186f6b6457e060405160405180910390a360008060006101000a81548173ffffffffffffffffffffffffffffffffffffffff021916908373ffffffffffffffffffffffffffffffffffffffff160217905550565b60008060009054906101000a900473ffffffffffffffffffffffffffffffffffffffff16905090565b60008060009054906101000a900473ffffffffffffffffffffffffffffffffffffffff1673ffffffffffffffffffffffffffffffffffffffff163373ffffffffffffffffffffffffffffffffffffffff1614905090565b600354341461057a57600080fd5b60013390806001815401808255809150509060018203906000526020600020016000909192909190916101000a81548173ffffffffffffffffffffffffffffffffffffffff021916908373ffffffffffffffffffffffffffffffffffffffff16021790555060028190555060036002541415610625577f618bb8eef2ec1c54d819499767199dc4a59d5471f128e947681c55b5e499284660405160405180910390a161062461064a565b5b565b61062f610515565b61063857600080fd5b610641816106aa565b50565b60025481565b610652610515565b61065b57600080fd5b600060016106676107a2565b8154811061067157fe5b9060005260206000200160009054906101000a900473ffffffffffffffffffffffffffffffffffffffff1690506106a78161082b565b50565b600073ffffffffffffffffffffffffffffffffffffffff168173ffffffffffffffffffffffffffffffffffffffff1614156106e457600080fd5b8073ffffffffffffffffffffffffffffffffffffffff166000809054906101000a900473ffffffffffffffffffffffffffffffffffffffff1673ffffffffffffffffffffffffffffffffffffffff167f8be0079c531659141344cd1fd0a4f28419497f9722a3daafe3b4186f6b6457e060405160405180910390a3806000806101000a81548173ffffffffffffffffffffffffffffffffffffffff021916908373ffffffffffffffffffffffffffffffffffffffff16021790555050565b6000806000905060008090505b60025481101561081857600181815481106107c657fe5b9060005260206000200160009054906101000a900473ffffffffffffffffffffffffffffffffffffffff1673ffffffffffffffffffffffffffffffffffffffff168201915080806001019150506107af565b50600254818161082457fe5b0691505090565b610833610515565b61083c57600080fd5b6000479050600082905060006001600460405180606001604052808573ffffffffffffffffffffffffffffffffffffffff16815260200186815260200160008152509080600181540180825580915050906001820390600052602060002090600302016000909192909190915060008201518160000160006101000a81548173ffffffffffffffffffffffffffffffffffffffff021916908373ffffffffffffffffffffffffffffffffffffffff16021790555060208201518160010155604082015181600201555050039050806004828154811061091757fe5b9060005260206000209060030201600201819055508373ffffffffffffffffffffffffffffffffffffffff166108fc479081150290604051600060405180830381858888f19350505050158015610972573d6000803e3d6000fd5b505050505056fea265627a7a723158202302c600c49b4eb6e026bdd1e1a994c44502e9a77cfe748036c98dc03b84905c64736f6c63430005100032",
  "source": "pragma solidity ^0.5.0;\r\n\r\nimport \"@openzeppelin/contracts/token/ERC721/ERC721Full.sol\";\r\nimport \"@openzeppelin/contracts/access/Ownable.sol\";\r\n\r\ncontract LotteryPlace is Ownable {\r\n    event startedLottery();\r\n\r\n    address[] public users;\r\n    uint256 public usersAmount;\r\n    uint256 signFee = 0.001 ether;\r\n\r\n    struct Winning {\r\n        address user;\r\n        uint256 amount;\r\n        uint256 winNumber;\r\n    }\r\n\r\n    Winning[] private winningBoard;\r\n\r\n    function getUsers() public view returns (address[] memory) {\r\n        return users;\r\n    }\r\n\r\n    function getUsersAmount() public view returns (uint256) {\r\n        return usersAmount;\r\n    }\r\n\r\n    function withdraw() external onlyOwner {\r\n        address payable _owner = address(uint160(owner()));\r\n        _owner.transfer(address(this).balance);\r\n    }\r\n\r\n    function sendReward(address payable _to) internal onlyOwner {\r\n        //send and record the winning.\r\n        uint256 amount = uint256(address(this).balance);\r\n        address user = _to;\r\n        uint256 winNumber = winningBoard.push(Winning(user, amount, 0)) - 1;\r\n        winningBoard[winNumber].winNumber = winNumber;\r\n\r\n        _to.transfer(address(this).balance);\r\n    }\r\n\r\n    function lotteryInit() internal onlyOwner {\r\n        delete users;\r\n    }\r\n\r\n    function raffleWinnerNumber() internal view returns (uint256) {\r\n        //returns index of winner\r\n        uint256 sum = 0;\r\n        for (uint256 i = 0; i < usersAmount; i++) {\r\n            sum += uint256(users[i]);\r\n        }\r\n\r\n        return sum % usersAmount;\r\n    }\r\n\r\n    function startLottery() internal onlyOwner {\r\n        //when amount of participents reached this function is called\r\n        //steps:\r\n        //1- generate random number.\r\n        //2- sends reward\r\n        //3- resets the lottery for next round\r\n        address payable winningAddress = address(\r\n            uint160(users[raffleWinnerNumber()])\r\n        );\r\n        sendReward(winningAddress);\r\n        //emit lotteryFinished()\r\n    }\r\n\r\n    function buyTicket() external payable {\r\n        require(msg.value == signFee);\r\n        usersAmount = users.push(msg.sender);\r\n\r\n        if (usersAmount == 3) {\r\n            emit startedLottery();\r\n            startLottery();\r\n        }\r\n    }\r\n}\r\n",
  "sourcePath": "D:/Ariel/School/Third year/BlockChain/Final Assignment/nft/src/contracts/Lottery.sol",
  "compiler": {
    "name": "solc",
    "version": "0.5.16+commit.9c3226ce.Emscripten.clang"
  },
  "schemaVersion": "3.4.1",
  "updatedAt": "2021-07-25T15:40:41.531Z",
  "networkType": "ethereum",
  "devdoc": {
    "methods": {
      "isOwner()": {
        "return": "true if `msg.sender` is the owner of the contract."
      },
      "owner()": {
        "return": "the address of the owner."
      },
      "renounceOwnership()": {
        "details": "Allows the current owner to relinquish control of the contract."
      },
      "transferOwnership(address)": {
        "details": "Allows the current owner to transfer control of the contract to a newOwner.",
        "params": {
          "newOwner": "The address to transfer ownership to."
        }
      }
    }
  },
  "userdoc": {
    "methods": {
      "renounceOwnership()": {
        "notice": "Renouncing to ownership will leave the contract without an owner. It will not be possible to call the functions with the `onlyOwner` modifier anymore."
      }
    }
  }
}